{
  "contractName": "BridgeBase",
  "abi": [
    {
      "inputs": [
        {
          "internalType": "address",
          "name": "_token",
          "type": "address"
        }
      ],
      "stateMutability": "nonpayable",
      "type": "constructor"
    },
    {
      "anonymous": false,
      "inputs": [
        {
          "indexed": true,
          "internalType": "address",
          "name": "previousOwner",
          "type": "address"
        },
        {
          "indexed": true,
          "internalType": "address",
          "name": "newOwner",
          "type": "address"
        }
      ],
      "name": "OwnershipTransferred",
      "type": "event"
    },
    {
      "anonymous": false,
      "inputs": [
        {
          "indexed": true,
          "internalType": "address",
          "name": "from",
          "type": "address"
        },
        {
          "indexed": true,
          "internalType": "address",
          "name": "to",
          "type": "address"
        },
        {
          "indexed": false,
          "internalType": "uint256",
          "name": "ammount",
          "type": "uint256"
        },
        {
          "indexed": false,
          "internalType": "uint256",
          "name": "date",
          "type": "uint256"
        },
        {
          "indexed": false,
          "internalType": "uint256",
          "name": "nonceOfEthereumChain",
          "type": "uint256"
        },
        {
          "indexed": true,
          "internalType": "enum BridgeBase.Step",
          "name": "step",
          "type": "uint8"
        }
      ],
      "name": "Transfer",
      "type": "event"
    },
    {
      "inputs": [],
      "name": "admin",
      "outputs": [
        {
          "internalType": "address",
          "name": "",
          "type": "address"
        }
      ],
      "stateMutability": "view",
      "type": "function"
    },
    {
      "inputs": [],
      "name": "nonce",
      "outputs": [
        {
          "internalType": "uint256",
          "name": "",
          "type": "uint256"
        }
      ],
      "stateMutability": "view",
      "type": "function"
    },
    {
      "inputs": [],
      "name": "owner",
      "outputs": [
        {
          "internalType": "address",
          "name": "",
          "type": "address"
        }
      ],
      "stateMutability": "view",
      "type": "function"
    },
    {
      "inputs": [
        {
          "internalType": "uint256",
          "name": "",
          "type": "uint256"
        }
      ],
      "name": "processedNonces",
      "outputs": [
        {
          "internalType": "bool",
          "name": "",
          "type": "bool"
        }
      ],
      "stateMutability": "view",
      "type": "function"
    },
    {
      "inputs": [],
      "name": "renounceOwnership",
      "outputs": [],
      "stateMutability": "nonpayable",
      "type": "function"
    },
    {
      "inputs": [],
      "name": "token",
      "outputs": [
        {
          "internalType": "contract IToken",
          "name": "",
          "type": "address"
        }
      ],
      "stateMutability": "view",
      "type": "function"
    },
    {
      "inputs": [
        {
          "internalType": "address",
          "name": "newOwner",
          "type": "address"
        }
      ],
      "name": "transferOwnership",
      "outputs": [],
      "stateMutability": "nonpayable",
      "type": "function"
    },
    {
      "inputs": [
        {
          "internalType": "address",
          "name": "to",
          "type": "address"
        },
        {
          "internalType": "uint256",
          "name": "amount",
          "type": "uint256"
        }
      ],
      "name": "burn",
      "outputs": [],
      "stateMutability": "nonpayable",
      "type": "function"
    },
    {
      "inputs": [
        {
          "internalType": "address",
          "name": "to",
          "type": "address"
        },
        {
          "internalType": "uint256",
          "name": "amount",
          "type": "uint256"
        },
        {
          "internalType": "uint256",
          "name": "otherChainNonce",
          "type": "uint256"
        }
      ],
      "name": "mint",
      "outputs": [],
      "stateMutability": "nonpayable",
      "type": "function"
    }
  ],
  "bytecode": "0x608060405234801561001057600080fd5b50604051610fdd380380610fdd83398181016040528101906100329190610185565b600061004261016860201b60201c565b9050806000806101000a81548173ffffffffffffffffffffffffffffffffffffffff021916908373ffffffffffffffffffffffffffffffffffffffff1602179055508073ffffffffffffffffffffffffffffffffffffffff16600073ffffffffffffffffffffffffffffffffffffffff167f8be0079c531659141344cd1fd0a4f28419497f9722a3daafe3b4186f6b6457e060405160405180910390a35033600160006101000a81548173ffffffffffffffffffffffffffffffffffffffff021916908373ffffffffffffffffffffffffffffffffffffffff16021790555080600260006101000a81548173ffffffffffffffffffffffffffffffffffffffff021916908373ffffffffffffffffffffffffffffffffffffffff160217905550506101f7565b600033905090565b60008151905061017f816101e0565b92915050565b60006020828403121561019757600080fd5b60006101a584828501610170565b91505092915050565b60006101b9826101c0565b9050919050565b600073ffffffffffffffffffffffffffffffffffffffff82169050919050565b6101e9816101ae565b81146101f457600080fd5b50565b610dd7806102066000396000f3fe608060405234801561001057600080fd5b50600436106100935760003560e01c80639dc29fac116100665780639dc29fac1461010c578063affed0e014610128578063f2fde38b14610146578063f851a44014610162578063fc0c546a1461018057610093565b8063156e29f614610098578063715018a6146100b45780638da5cb5b146100be57806391dae519146100dc575b600080fd5b6100b260048036038101906100ad9190610958565b61019e565b005b6100bc6103f4565b005b6100c661052e565b6040516100d39190610b32565b60405180910390f35b6100f660048036038101906100f191906109a7565b610557565b6040516101039190610b76565b60405180910390f35b6101266004803603810190610121919061091c565b610577565b005b6101306106c6565b60405161013d9190610c2c565b60405180910390f35b610160600480360381019061015b91906108f3565b6106cc565b005b61016a610875565b6040516101779190610b32565b60405180910390f35b61018861089b565b6040516101959190610b91565b60405180910390f35b600160009054906101000a900473ffffffffffffffffffffffffffffffffffffffff1673ffffffffffffffffffffffffffffffffffffffff163373ffffffffffffffffffffffffffffffffffffffff161461022e576040517f08c379a000000000000000000000000000000000000000000000000000000000815260040161022590610bec565b60405180910390fd5b6004600082815260200190815260200160002060009054906101000a900460ff161561028f576040517f08c379a000000000000000000000000000000000000000000000000000000000815260040161028690610bcc565b60405180910390fd5b600260009054906101000a900473ffffffffffffffffffffffffffffffffffffffff1673ffffffffffffffffffffffffffffffffffffffff166340c10f1984846040518363ffffffff1660e01b81526004016102ec929190610b4d565b600060405180830381600087803b15801561030657600080fd5b505af115801561031a573d6000803e3d6000fd5b5050505060006001811115610358577f4e487b7100000000000000000000000000000000000000000000000000000000600052602160045260246000fd5b8373ffffffffffffffffffffffffffffffffffffffff163373ffffffffffffffffffffffffffffffffffffffff167f27757542a5e1b9e8cef80f584e094d4eb63b9802f355c61b3640b71b618d5c8e85426003546040516103bb93929190610c47565b60405180910390a460016004600083815260200190815260200160002060006101000a81548160ff021916908315150217905550505050565b6103fc6108c1565b73ffffffffffffffffffffffffffffffffffffffff1661041a61052e565b73ffffffffffffffffffffffffffffffffffffffff1614610470576040517f08c379a000000000000000000000000000000000000000000000000000000000815260040161046790610c0c565b60405180910390fd5b600073ffffffffffffffffffffffffffffffffffffffff1660008054906101000a900473ffffffffffffffffffffffffffffffffffffffff1673ffffffffffffffffffffffffffffffffffffffff167f8be0079c531659141344cd1fd0a4f28419497f9722a3daafe3b4186f6b6457e060405160405180910390a360008060006101000a81548173ffffffffffffffffffffffffffffffffffffffff021916908373ffffffffffffffffffffffffffffffffffffffff160217905550565b60008060009054906101000a900473ffffffffffffffffffffffffffffffffffffffff16905090565b60046020528060005260406000206000915054906101000a900460ff1681565b600260009054906101000a900473ffffffffffffffffffffffffffffffffffffffff1673ffffffffffffffffffffffffffffffffffffffff16639dc29fac33836040518363ffffffff1660e01b81526004016105d4929190610b4d565b600060405180830381600087803b1580156105ee57600080fd5b505af1158015610602573d6000803e3d6000fd5b5050505060018081111561063f577f4e487b7100000000000000000000000000000000000000000000000000000000600052602160045260246000fd5b8273ffffffffffffffffffffffffffffffffffffffff163373ffffffffffffffffffffffffffffffffffffffff167f27757542a5e1b9e8cef80f584e094d4eb63b9802f355c61b3640b71b618d5c8e84426003546040516106a293929190610c47565b60405180910390a4600360008154809291906106bd90610cfb565b91905055505050565b60035481565b6106d46108c1565b73ffffffffffffffffffffffffffffffffffffffff166106f261052e565b73ffffffffffffffffffffffffffffffffffffffff1614610748576040517f08c379a000000000000000000000000000000000000000000000000000000000815260040161073f90610c0c565b60405180910390fd5b600073ffffffffffffffffffffffffffffffffffffffff168173ffffffffffffffffffffffffffffffffffffffff1614156107b8576040517f08c379a00000000000000000000000000000000000000000000000000000000081526004016107af90610bac565b60405180910390fd5b8073ffffffffffffffffffffffffffffffffffffffff1660008054906101000a900473ffffffffffffffffffffffffffffffffffffffff1673ffffffffffffffffffffffffffffffffffffffff167f8be0079c531659141344cd1fd0a4f28419497f9722a3daafe3b4186f6b6457e060405160405180910390a3806000806101000a81548173ffffffffffffffffffffffffffffffffffffffff021916908373ffffffffffffffffffffffffffffffffffffffff16021790555050565b600160009054906101000a900473ffffffffffffffffffffffffffffffffffffffff1681565b600260009054906101000a900473ffffffffffffffffffffffffffffffffffffffff1681565b600033905090565b6000813590506108d881610d73565b92915050565b6000813590506108ed81610d8a565b92915050565b60006020828403121561090557600080fd5b6000610913848285016108c9565b91505092915050565b6000806040838503121561092f57600080fd5b600061093d858286016108c9565b925050602061094e858286016108de565b9150509250929050565b60008060006060848603121561096d57600080fd5b600061097b868287016108c9565b935050602061098c868287016108de565b925050604061099d868287016108de565b9150509250925092565b6000602082840312156109b957600080fd5b60006109c7848285016108de565b91505092915050565b6109d981610c8f565b82525050565b6109e881610ca1565b82525050565b6109f781610cd7565b82525050565b6000610a0a602683610c7e565b91507f4f776e61626c653a206e6577206f776e657220697320746865207a65726f206160008301527f64647265737300000000000000000000000000000000000000000000000000006020830152604082019050919050565b6000610a70601a83610c7e565b91507f7472616e7366657220616c72656164792070726f6365737365640000000000006000830152602082019050919050565b6000610ab0601783610c7e565b91507f63616c6c6572206973206e6f7420746865206f776e65720000000000000000006000830152602082019050919050565b6000610af0602083610c7e565b91507f4f776e61626c653a2063616c6c6572206973206e6f7420746865206f776e65726000830152602082019050919050565b610b2c81610ccd565b82525050565b6000602082019050610b4760008301846109d0565b92915050565b6000604082019050610b6260008301856109d0565b610b6f6020830184610b23565b9392505050565b6000602082019050610b8b60008301846109df565b92915050565b6000602082019050610ba660008301846109ee565b92915050565b60006020820190508181036000830152610bc5816109fd565b9050919050565b60006020820190508181036000830152610be581610a63565b9050919050565b60006020820190508181036000830152610c0581610aa3565b9050919050565b60006020820190508181036000830152610c2581610ae3565b9050919050565b6000602082019050610c416000830184610b23565b92915050565b6000606082019050610c5c6000830186610b23565b610c696020830185610b23565b610c766040830184610b23565b949350505050565b600082825260208201905092915050565b6000610c9a82610cad565b9050919050565b60008115159050919050565b600073ffffffffffffffffffffffffffffffffffffffff82169050919050565b6000819050919050565b6000610ce282610ce9565b9050919050565b6000610cf482610cad565b9050919050565b6000610d0682610ccd565b91507fffffffffffffffffffffffffffffffffffffffffffffffffffffffffffffffff821415610d3957610d38610d44565b5b600182019050919050565b7f4e487b7100000000000000000000000000000000000000000000000000000000600052601160045260246000fd5b610d7c81610c8f565b8114610d8757600080fd5b50565b610d9381610ccd565b8114610d9e57600080fd5b5056fea264697066735822122003235ecb9932de853abf190c7643c5e423a623b4145d5a84c81da88737a1e91d64736f6c63430008000033",
  "immutableReferences": {},
  "source": "//SPDX-License-Identifier:MIT\r\npragma solidity ^0.8.0;\r\nimport \"./IToken.sol\";\r\nimport \"@openzeppelin/contracts/access/Ownable.sol\";\r\n\r\ncontract BridgeBase is Ownable {\r\n    address public admin;\r\n    IToken public token;\r\n    uint256 public nonce;\r\n    mapping(uint256 => bool) public processedNonces;\r\n\r\n    enum Step {Mint, Burn}\r\n\r\n    event Transfer(\r\n        address indexed from,\r\n        address indexed to,\r\n        uint256 ammount,\r\n        uint256 date,\r\n        uint256 nonceOfEthereumChain,\r\n        Step indexed step\r\n    );\r\n\r\n    constructor(address _token) {\r\n        admin = msg.sender;\r\n        token = IToken(_token);\r\n    }\r\n\r\n    function burn(address to, uint256 amount) external {\r\n        token.burn(msg.sender, amount);\r\n        emit Transfer(\r\n            msg.sender,\r\n            to,\r\n            amount,\r\n            block.timestamp,\r\n            nonce,\r\n            Step.Burn\r\n        );\r\n        nonce++;\r\n    }\r\n\r\n    function mint(\r\n        address to,\r\n        uint256 amount,\r\n        uint256 otherChainNonce\r\n    ) external {\r\n        require(msg.sender == admin, \"caller is not the owner\");\r\n        require(\r\n            !processedNonces[otherChainNonce],\r\n            \"transfer already processed\"\r\n        );\r\n        token.mint(to, amount);\r\n        emit Transfer(\r\n            msg.sender,\r\n            to,\r\n            amount,\r\n            block.timestamp,\r\n            nonce,\r\n            Step.Mint\r\n        );\r\n        processedNonces[otherChainNonce] = true;\r\n    }\r\n}\r\n",
  "sourcePath": "C:\\Users\\raja roy\\Desktop\\ETHEREUM_PROJECT\\TokenBridge\\contracts\\BridgeBase.sol",
  "compiler": {
    "name": "solc",
    "version": "0.8.0+commit.c7dfd78e.Emscripten.clang"
  },
  "schemaVersion": "3.3.3",
  "updatedAt": "2021-04-24T19:01:47.487Z",
  "devdoc": {
    "kind": "dev",
    "methods": {
      "owner()": {
        "details": "Returns the address of the current owner."
      },
      "renounceOwnership()": {
        "details": "Leaves the contract without owner. It will not be possible to call `onlyOwner` functions anymore. Can only be called by the current owner. NOTE: Renouncing ownership will leave the contract without an owner, thereby removing any functionality that is only available to the owner."
      },
      "transferOwnership(address)": {
        "details": "Transfers ownership of the contract to a new account (`newOwner`). Can only be called by the current owner."
      }
    },
    "version": 1
  },
  "userdoc": {
    "kind": "user",
    "methods": {},
    "version": 1
  }
}