{
  "contractName": "BscBridge",
  "abi": [
    {
      "inputs": [
        {
          "internalType": "address",
          "name": "token",
          "type": "address"
        }
      ],
      "stateMutability": "nonpayable",
      "type": "constructor"
    },
    {
      "anonymous": false,
      "inputs": [
        {
          "indexed": true,
          "internalType": "address",
          "name": "previousOwner",
          "type": "address"
        },
        {
          "indexed": true,
          "internalType": "address",
          "name": "newOwner",
          "type": "address"
        }
      ],
      "name": "OwnershipTransferred",
      "type": "event"
    },
    {
      "anonymous": false,
      "inputs": [
        {
          "indexed": true,
          "internalType": "address",
          "name": "from",
          "type": "address"
        },
        {
          "indexed": true,
          "internalType": "address",
          "name": "to",
          "type": "address"
        },
        {
          "indexed": false,
          "internalType": "uint256",
          "name": "ammount",
          "type": "uint256"
        },
        {
          "indexed": false,
          "internalType": "uint256",
          "name": "date",
          "type": "uint256"
        },
        {
          "indexed": false,
          "internalType": "uint256",
          "name": "nonceOfEthereumChain",
          "type": "uint256"
        },
        {
          "indexed": false,
          "internalType": "bytes",
          "name": "signature",
          "type": "bytes"
        },
        {
          "indexed": true,
          "internalType": "enum DecentraliseBridgeBase.Step",
          "name": "step",
          "type": "uint8"
        }
      ],
      "name": "Transfer",
      "type": "event"
    },
    {
      "inputs": [],
      "name": "admin",
      "outputs": [
        {
          "internalType": "address",
          "name": "",
          "type": "address"
        }
      ],
      "stateMutability": "view",
      "type": "function",
      "constant": true
    },
    {
      "inputs": [
        {
          "internalType": "address",
          "name": "to",
          "type": "address"
        },
        {
          "internalType": "uint256",
          "name": "amount",
          "type": "uint256"
        },
        {
          "internalType": "bytes",
          "name": "signature",
          "type": "bytes"
        }
      ],
      "name": "burn",
      "outputs": [],
      "stateMutability": "nonpayable",
      "type": "function"
    },
    {
      "inputs": [
        {
          "internalType": "address",
          "name": "from",
          "type": "address"
        },
        {
          "internalType": "address",
          "name": "to",
          "type": "address"
        },
        {
          "internalType": "uint256",
          "name": "amount",
          "type": "uint256"
        },
        {
          "internalType": "uint256",
          "name": "otherChainNonce",
          "type": "uint256"
        },
        {
          "internalType": "bytes",
          "name": "signature",
          "type": "bytes"
        }
      ],
      "name": "mint",
      "outputs": [],
      "stateMutability": "nonpayable",
      "type": "function"
    },
    {
      "inputs": [],
      "name": "owner",
      "outputs": [
        {
          "internalType": "address",
          "name": "",
          "type": "address"
        }
      ],
      "stateMutability": "view",
      "type": "function",
      "constant": true
    },
    {
      "inputs": [
        {
          "internalType": "address",
          "name": "",
          "type": "address"
        },
        {
          "internalType": "uint256",
          "name": "",
          "type": "uint256"
        }
      ],
      "name": "processedNonces",
      "outputs": [
        {
          "internalType": "bool",
          "name": "",
          "type": "bool"
        }
      ],
      "stateMutability": "view",
      "type": "function",
      "constant": true
    },
    {
      "inputs": [],
      "name": "renounceOwnership",
      "outputs": [],
      "stateMutability": "nonpayable",
      "type": "function"
    },
    {
      "inputs": [],
      "name": "token",
      "outputs": [
        {
          "internalType": "contract IToken",
          "name": "",
          "type": "address"
        }
      ],
      "stateMutability": "view",
      "type": "function",
      "constant": true
    },
    {
      "inputs": [
        {
          "internalType": "address",
          "name": "newOwner",
          "type": "address"
        }
      ],
      "name": "transferOwnership",
      "outputs": [],
      "stateMutability": "nonpayable",
      "type": "function"
    },
    {
      "inputs": [
        {
          "internalType": "address",
          "name": "",
          "type": "address"
        }
      ],
      "name": "userNonce",
      "outputs": [
        {
          "internalType": "uint256",
          "name": "",
          "type": "uint256"
        }
      ],
      "stateMutability": "view",
      "type": "function",
      "constant": true
    }
  ],
  "bytecode": "0x60806040523480156200001157600080fd5b506040516200170d3803806200170d833981810160405281019062000037919062000191565b8060006200004a6200017260201b60201c565b9050806000806101000a81548173ffffffffffffffffffffffffffffffffffffffff021916908373ffffffffffffffffffffffffffffffffffffffff1602179055508073ffffffffffffffffffffffffffffffffffffffff16600073ffffffffffffffffffffffffffffffffffffffff167f8be0079c531659141344cd1fd0a4f28419497f9722a3daafe3b4186f6b6457e060405160405180910390a35033600160006101000a81548173ffffffffffffffffffffffffffffffffffffffff021916908373ffffffffffffffffffffffffffffffffffffffff16021790555080600260006101000a81548173ffffffffffffffffffffffffffffffffffffffff021916908373ffffffffffffffffffffffffffffffffffffffff16021790555050506200020b565b600033905090565b6000815190506200018b81620001f1565b92915050565b600060208284031215620001a457600080fd5b6000620001b4848285016200017a565b91505092915050565b6000620001ca82620001d1565b9050919050565b600073ffffffffffffffffffffffffffffffffffffffff82169050919050565b620001fc81620001bd565b81146200020857600080fd5b50565b6114f2806200021b6000396000f3fe608060405234801561001057600080fd5b50600436106100935760003560e01c80637cc70240116100665780637cc702401461010a5780638da5cb5b1461013a578063f2fde38b14610158578063f851a44014610174578063fc0c546a1461019257610093565b80632e04b8e71461009857806344d17187146100c857806352555702146100e4578063715018a614610100575b600080fd5b6100b260048036038101906100ad9190610ce3565b6101b0565b6040516100bf919061128b565b60405180910390f35b6100e260048036038101906100dd9190610dda565b6101c8565b005b6100fe60048036038101906100f99190610d0c565b61049f565b005b6101086107d9565b005b610124600480360381019061011f9190610d9e565b610913565b6040516101319190611170565b60405180910390f35b610142610942565b60405161014f919061112c565b60405180910390f35b610172600480360381019061016d9190610ce3565b61096b565b005b61017c610b14565b604051610189919061112c565b60405180910390f35b61019a610b3a565b6040516101a791906111d0565b60405180910390f35b60046020528060005260406000206000915090505481565b60006001600460003373ffffffffffffffffffffffffffffffffffffffff1673ffffffffffffffffffffffffffffffffffffffff168152602001908152602001600020546102169190611321565b9050600360003373ffffffffffffffffffffffffffffffffffffffff1673ffffffffffffffffffffffffffffffffffffffff168152602001908152602001600020600082815260200190815260200160002060009054906101000a900460ff16156102b6576040517f08c379a00000000000000000000000000000000000000000000000000000000081526004016102ad9061120b565b60405180910390fd5b600260009054906101000a900473ffffffffffffffffffffffffffffffffffffffff1673ffffffffffffffffffffffffffffffffffffffff16639dc29fac33866040518363ffffffff1660e01b8152600401610313929190611147565b600060405180830381600087803b15801561032d57600080fd5b505af1158015610341573d6000803e3d6000fd5b5050505080600460003373ffffffffffffffffffffffffffffffffffffffff1673ffffffffffffffffffffffffffffffffffffffff168152602001908152602001600020819055506001600360003373ffffffffffffffffffffffffffffffffffffffff1673ffffffffffffffffffffffffffffffffffffffff168152602001908152602001600020600083815260200190815260200160002060006101000a81548160ff02191690831515021790555060018081111561042b577f4e487b7100000000000000000000000000000000000000000000000000000000600052602160045260246000fd5b8573ffffffffffffffffffffffffffffffffffffffff163373ffffffffffffffffffffffffffffffffffffffff167fce5a9b86edd3b998c3948a7934c7ecf7dba73c4c5bcf56cf576bca4aa2beeb3087428689896040516104909594939291906112a6565b60405180910390a45050505050565b600360008773ffffffffffffffffffffffffffffffffffffffff1673ffffffffffffffffffffffffffffffffffffffff168152602001908152602001600020600084815260200190815260200160002060009054906101000a900460ff161561053d576040517f08c379a00000000000000000000000000000000000000000000000000000000081526004016105349061120b565b60405180910390fd5b60006105748787878760405160200161055994939291906110b8565b60405160208183030381529060405280519060200120610b60565b90508673ffffffffffffffffffffffffffffffffffffffff166105db8285858080601f016020809104026020016040519081016040528093929190818152602001838380828437600081840152601f19601f82011690508083019250505050505050610b90565b73ffffffffffffffffffffffffffffffffffffffff1614610631576040517f08c379a00000000000000000000000000000000000000000000000000000000081526004016106289061126b565b60405180910390fd5b600260009054906101000a900473ffffffffffffffffffffffffffffffffffffffff1673ffffffffffffffffffffffffffffffffffffffff166340c10f1987876040518363ffffffff1660e01b815260040161068e929190611147565b600060405180830381600087803b1580156106a857600080fd5b505af11580156106bc573d6000803e3d6000fd5b50505050600060018111156106fa577f4e487b7100000000000000000000000000000000000000000000000000000000600052602160045260246000fd5b8673ffffffffffffffffffffffffffffffffffffffff168873ffffffffffffffffffffffffffffffffffffffff167fce5a9b86edd3b998c3948a7934c7ecf7dba73c4c5bcf56cf576bca4aa2beeb30884289898960405161075f9594939291906112a6565b60405180910390a46001600360008973ffffffffffffffffffffffffffffffffffffffff1673ffffffffffffffffffffffffffffffffffffffff168152602001908152602001600020600086815260200190815260200160002060006101000a81548160ff02191690831515021790555050505050505050565b6107e1610bff565b73ffffffffffffffffffffffffffffffffffffffff166107ff610942565b73ffffffffffffffffffffffffffffffffffffffff1614610855576040517f08c379a000000000000000000000000000000000000000000000000000000000815260040161084c9061122b565b60405180910390fd5b600073ffffffffffffffffffffffffffffffffffffffff1660008054906101000a900473ffffffffffffffffffffffffffffffffffffffff1673ffffffffffffffffffffffffffffffffffffffff167f8be0079c531659141344cd1fd0a4f28419497f9722a3daafe3b4186f6b6457e060405160405180910390a360008060006101000a81548173ffffffffffffffffffffffffffffffffffffffff021916908373ffffffffffffffffffffffffffffffffffffffff160217905550565b60036020528160005260406000206020528060005260406000206000915091509054906101000a900460ff1681565b60008060009054906101000a900473ffffffffffffffffffffffffffffffffffffffff16905090565b610973610bff565b73ffffffffffffffffffffffffffffffffffffffff16610991610942565b73ffffffffffffffffffffffffffffffffffffffff16146109e7576040517f08c379a00000000000000000000000000000000000000000000000000000000081526004016109de9061122b565b60405180910390fd5b600073ffffffffffffffffffffffffffffffffffffffff168173ffffffffffffffffffffffffffffffffffffffff161415610a57576040517f08c379a0000000000000000000000000000000000000000000000000000000008152600401610a4e906111eb565b60405180910390fd5b8073ffffffffffffffffffffffffffffffffffffffff1660008054906101000a900473ffffffffffffffffffffffffffffffffffffffff1673ffffffffffffffffffffffffffffffffffffffff167f8be0079c531659141344cd1fd0a4f28419497f9722a3daafe3b4186f6b6457e060405160405180910390a3806000806101000a81548173ffffffffffffffffffffffffffffffffffffffff021916908373ffffffffffffffffffffffffffffffffffffffff16021790555050565b600160009054906101000a900473ffffffffffffffffffffffffffffffffffffffff1681565b600260009054906101000a900473ffffffffffffffffffffffffffffffffffffffff1681565b600081604051602001610b739190611106565b604051602081830303815290604052805190602001209050919050565b600080600080610b9f85610c07565b92509250925060018682858560405160008152602001604052604051610bc8949392919061118b565b6020604051602081039080840390855afa158015610bea573d6000803e3d6000fd5b50505060206040510351935050505092915050565b600033905090565b60008060006041845114610c50576040517f08c379a0000000000000000000000000000000000000000000000000000000008152600401610c479061124b565b60405180910390fd5b6020840151925060408401519150606084015160001a90509193909250565b600081359050610c7e8161148e565b92915050565b60008083601f840112610c9657600080fd5b8235905067ffffffffffffffff811115610caf57600080fd5b602083019150836001820283011115610cc757600080fd5b9250929050565b600081359050610cdd816114a5565b92915050565b600060208284031215610cf557600080fd5b6000610d0384828501610c6f565b91505092915050565b60008060008060008060a08789031215610d2557600080fd5b6000610d3389828a01610c6f565b9650506020610d4489828a01610c6f565b9550506040610d5589828a01610cce565b9450506060610d6689828a01610cce565b935050608087013567ffffffffffffffff811115610d8357600080fd5b610d8f89828a01610c84565b92509250509295509295509295565b60008060408385031215610db157600080fd5b6000610dbf85828601610c6f565b9250506020610dd085828601610cce565b9150509250929050565b60008060008060608587031215610df057600080fd5b6000610dfe87828801610c6f565b9450506020610e0f87828801610cce565b935050604085013567ffffffffffffffff811115610e2c57600080fd5b610e3887828801610c84565b925092505092959194509250565b610e4f81611377565b82525050565b610e66610e6182611377565b611409565b82525050565b610e7581611389565b82525050565b610e8481611395565b82525050565b610e9b610e9682611395565b61141b565b82525050565b6000610ead83856112f4565b9350610eba8385846113fa565b610ec383611470565b840190509392505050565b610ed7816113d6565b82525050565b6000610eea601c83611316565b91507f19457468657265756d205369676e6564204d6573736167653a0a3332000000006000830152601c82019050919050565b6000610f2a602683611305565b91507f4f776e61626c653a206e6577206f776e657220697320746865207a65726f206160008301527f64647265737300000000000000000000000000000000000000000000000000006020830152604082019050919050565b6000610f90601a83611305565b91507f7472616e7366657220616c72656164792070726f6365737365640000000000006000830152602082019050919050565b6000610fd0602083611305565b91507f4f776e61626c653a2063616c6c6572206973206e6f7420746865206f776e65726000830152602082019050919050565b6000611010601883611305565b91507f696e76616c6964207369676e6174757265206c656e67746800000000000000006000830152602082019050919050565b6000611050600f83611305565b91507f77726f6e67207369676e617475726500000000000000000000000000000000006000830152602082019050919050565b61108c816113bf565b82525050565b6110a361109e826113bf565b611437565b82525050565b6110b2816113c9565b82525050565b60006110c48287610e55565b6014820191506110d48286610e55565b6014820191506110e48285611092565b6020820191506110f48284611092565b60208201915081905095945050505050565b600061111182610edd565b915061111d8284610e8a565b60208201915081905092915050565b60006020820190506111416000830184610e46565b92915050565b600060408201905061115c6000830185610e46565b6111696020830184611083565b9392505050565b60006020820190506111856000830184610e6c565b92915050565b60006080820190506111a06000830187610e7b565b6111ad60208301866110a9565b6111ba6040830185610e7b565b6111c76060830184610e7b565b95945050505050565b60006020820190506111e56000830184610ece565b92915050565b6000602082019050818103600083015261120481610f1d565b9050919050565b6000602082019050818103600083015261122481610f83565b9050919050565b6000602082019050818103600083015261124481610fc3565b9050919050565b6000602082019050818103600083015261126481611003565b9050919050565b6000602082019050818103600083015261128481611043565b9050919050565b60006020820190506112a06000830184611083565b92915050565b60006080820190506112bb6000830188611083565b6112c86020830187611083565b6112d56040830186611083565b81810360608301526112e8818486610ea1565b90509695505050505050565b600082825260208201905092915050565b600082825260208201905092915050565b600081905092915050565b600061132c826113bf565b9150611337836113bf565b9250827fffffffffffffffffffffffffffffffffffffffffffffffffffffffffffffffff0382111561136c5761136b611441565b5b828201905092915050565b60006113828261139f565b9050919050565b60008115159050919050565b6000819050919050565b600073ffffffffffffffffffffffffffffffffffffffff82169050919050565b6000819050919050565b600060ff82169050919050565b60006113e1826113e8565b9050919050565b60006113f38261139f565b9050919050565b82818337600083830152505050565b600061141482611425565b9050919050565b6000819050919050565b600061143082611481565b9050919050565b6000819050919050565b7f4e487b7100000000000000000000000000000000000000000000000000000000600052601160045260246000fd5b6000601f19601f8301169050919050565b60008160601b9050919050565b61149781611377565b81146114a257600080fd5b50565b6114ae816113bf565b81146114b957600080fd5b5056fea26469706673582212205b9feee1e80309f914c9f63d52bed7cec059afd454367d81df3523757592aec464736f6c63430008000033",
  "immutableReferences": {},
  "source": "//SPDX-License-Identifier:MIT\r\npragma solidity ^0.8.0;\r\nimport \"./DecentraliseBridgeBase.sol\";\r\n\r\ncontract BscBridge is DecentraliseBridgeBase {\r\n    constructor(address token) DecentraliseBridgeBase(token) {}\r\n}\r\n",
  "sourcePath": "C:/Users/raja roy/Desktop/ETHEREUM_PROJECT/TokenBridge/contracts/BscBridge.sol",
  "compiler": {
    "name": "solc",
    "version": "0.8.0+commit.c7dfd78e.Emscripten.clang"
  },
  "schemaVersion": "3.3.3",
  "updatedAt": "2021-04-27T10:41:42.417Z",
  "networkType": "ethereum",
  "devdoc": {
    "kind": "dev",
    "methods": {
      "owner()": {
        "details": "Returns the address of the current owner."
      },
      "renounceOwnership()": {
        "details": "Leaves the contract without owner. It will not be possible to call `onlyOwner` functions anymore. Can only be called by the current owner. NOTE: Renouncing ownership will leave the contract without an owner, thereby removing any functionality that is only available to the owner."
      },
      "transferOwnership(address)": {
        "details": "Transfers ownership of the contract to a new account (`newOwner`). Can only be called by the current owner."
      }
    },
    "version": 1
  },
  "userdoc": {
    "kind": "user",
    "methods": {},
    "version": 1
  }
}